:020000040800F2
:100000007806002031020008390200083B0200088F
:100010003D0200083F020008410200080000000005
:100020000000000000000000000000004302000883
:10003000450200080000000047020008890100088E
:100040004B0200084B0200084B0200084B0200085C
:100050004B0200084B0200084B0200084B0200084C
:100060004B0200084B0200084B0200084B0200083C
:100070004B0200084B0200084B0200084B0200082C
:100080004B0200084B0200084B0200084B0200081C
:100090004B0200084B0200084B0200084B0200080C
:1000A0004B0200084B0200084B0200084B020008FC
:1000B0004B0200084B020008000000004B02000841
:1000C0004B02000800000000000000004B02000886
:1000D000000000004B0200084B0200080000000076
:1000E0004B0200084B0200084B02000800F002F827
:1000F00000F03AF80AA090E8000C82448344AAF188
:100100000107DA4501D100F02FF8AFF2090EBAE885
:100110000F0013F0010F18BFFB1A43F0010318473B
:10012000AC030000CC030000103A24BF78C878C1AB
:10013000FAD8520724BF30C830C144BF04680C60ED
:10014000704700000023002400250026103A28BF35
:1001500078C1FBD8520728BF30C148BF0B60704739
:100160001FB51FBD10B510BD00F075F91146FFF7A2
:10017000F7FF00F05BF800F093F903B4FFF7F2FF2C
:1001800003BC00F09BF900002348006820B122481E
:100190000068401E20490860704770B500F0FEF806
:1001A0001E4800681E4AB0FBF2F1B1F1807F00D317
:1001B0001DE021F07F40401E4FF0E02250615017BB
:1001C0000F22002807DA13071D0E164B00F00F044C
:1001D000241F1D5503E013071C0E134B1C5400BFB6
:1001E00000204FF0E02290610720106100BF70BD39
:1001F0000949086000BF084909680029FBD1704718
:1002000000B5024603E04FF47A70FFF7F1FF101ECD
:10021000A2F10102F7D100BD00000020040000207F
:1002200040420F0018ED00E000E400E000207047BD
:100230000948804709480047FEE7FEE7FEE7FEE77A
:10024000FEE7FEE7FEE7FEE7FEE7FEE704480549B6
:10025000054A064B704700004F030008ED000008F8
:100260007800002078060020780200207802002024
:100270000CB50020019000906C48006840F480307C
:100280006A49086000BF6948006800F400300090C7
:100290000198401C0190009818B90198B0F5A06F22
:1002A000F1D16248006800F4003010B101200090E4
:1002B00001E0002000900098012843D15C480068CC
:1002C00040F010005A4908600846006820F003001A
:1002D00008600846006840F0020008605348406823
:1002E000524948600846406848600846406840F403
:1002F000806048600846406820F47C1048600846EA
:10030000406840F4E81048600846006840F080709B
:10031000086000BF4548006800F000700028F9D070
:100320004248406820F00300404948600846406861
:1003300040F00200486000BF3C48406800F00C00FC
:100340000828F9D10CBD10B5FFF792FF10BD10B50C
:100350003648006840F001003449086008464068AB
:10036000344908403149486008460068324908402D
:100370002E4908600846006820F48020086008467E
:10038000406820F4FE0048604FF41F008860FFF7CB
:10039000DAFF4FF000602949086010BD10B5002158
:1003A00000200022214B5B6803F00C0121B10429DD
:1003B00006D0082928D107E0214B224C236027E0F2
:1003C0001F4B204C236023E0184B5B6803F4701034
:1003D000164B5B6803F48032022303EB904022B992
:1003E000194B4343174C23600DE0104B5B6803F43B
:1003F000003323B1144B4343124C236003E0104BF2
:100400004343104C236003E00D4B0E4C236000BFB0
:1004100000BF064B5B68C3F303130C4CE15C094B54
:100420001B68CB40074C236010BD00000010024049
:10043000002002400000FFF8FFFFF6FE08ED00E09C
:1004400000127A000400002000093D00080000208E
:10045000704770477047754600F02CF8AE460500AF
:100460006946534620F00700854618B020B5FFF7CF
:10047000EDFEBDE820404FF000064FF000074FF0C2
:1004800000084FF0000B21F00701AC46ACE8C009B2
:10049000ACE8C009ACE8C009ACE8C0098D467047BB
:1004A00010B50446AFF300802046BDE81040FFF7CA
:1004B00064BE000000487047180000200149182061
:1004C000ABBEFEE72600020070470000EC04000807
:1004D00000000020180000002801000804050008A2
:1004E0001800002060060000440100080000000021
:1004F00000A24A0400000000000000000102030402
:0405000006070809D9
:04000005080000ED02
:00000001FF
